{
  "contractName": "Auction",
  "abi": [
    {
      "inputs": [
        {
          "internalType": "uint256",
          "name": "",
          "type": "uint256"
        }
      ],
      "name": "bidders",
      "outputs": [
        {
          "internalType": "uint256",
          "name": "bidderId",
          "type": "uint256"
        },
        {
          "internalType": "string",
          "name": "addr",
          "type": "string"
        },
        {
          "internalType": "uint256",
          "name": "total_tokens",
          "type": "uint256"
        }
      ],
      "stateMutability": "view",
      "type": "function",
      "constant": true
    },
    {
      "inputs": [
        {
          "internalType": "uint256",
          "name": "",
          "type": "uint256"
        }
      ],
      "name": "bids",
      "outputs": [
        {
          "internalType": "uint256",
          "name": "itemid",
          "type": "uint256"
        },
        {
          "internalType": "string",
          "name": "bidder_address",
          "type": "string"
        },
        {
          "internalType": "uint256",
          "name": "amount",
          "type": "uint256"
        }
      ],
      "stateMutability": "view",
      "type": "function",
      "constant": true
    },
    {
      "inputs": [
        {
          "internalType": "string",
          "name": "add1",
          "type": "string"
        },
        {
          "internalType": "uint256",
          "name": "n",
          "type": "uint256"
        }
      ],
      "name": "register_bidder",
      "outputs": [],
      "stateMutability": "nonpayable",
      "type": "function"
    },
    {
      "inputs": [
        {
          "internalType": "uint256",
          "name": "itemid",
          "type": "uint256"
        },
        {
          "internalType": "string",
          "name": "addr",
          "type": "string"
        },
        {
          "internalType": "uint256",
          "name": "tokens",
          "type": "uint256"
        }
      ],
      "name": "bid_item",
      "outputs": [],
      "stateMutability": "nonpayable",
      "type": "function"
    },
    {
      "inputs": [],
      "name": "getmyid",
      "outputs": [
        {
          "internalType": "uint256",
          "name": "",
          "type": "uint256"
        }
      ],
      "stateMutability": "view",
      "type": "function",
      "constant": true
    },
    {
      "inputs": [],
      "name": "getmyid_af",
      "outputs": [
        {
          "internalType": "uint256",
          "name": "",
          "type": "uint256"
        }
      ],
      "stateMutability": "view",
      "type": "function",
      "constant": true
    },
    {
      "inputs": [
        {
          "internalType": "uint256",
          "name": "i",
          "type": "uint256"
        },
        {
          "internalType": "uint256",
          "name": "_itemid",
          "type": "uint256"
        }
      ],
      "name": "getbid_details",
      "outputs": [
        {
          "internalType": "uint256",
          "name": "",
          "type": "uint256"
        },
        {
          "internalType": "string",
          "name": "",
          "type": "string"
        }
      ],
      "stateMutability": "view",
      "type": "function",
      "constant": true
    },
    {
      "inputs": [],
      "name": "bid_length",
      "outputs": [
        {
          "internalType": "uint256",
          "name": "",
          "type": "uint256"
        }
      ],
      "stateMutability": "view",
      "type": "function",
      "constant": true
    },
    {
      "inputs": [
        {
          "internalType": "uint256",
          "name": "id",
          "type": "uint256"
        }
      ],
      "name": "winner_address",
      "outputs": [
        {
          "internalType": "string",
          "name": "",
          "type": "string"
        }
      ],
      "stateMutability": "view",
      "type": "function",
      "constant": true
    }
  ],
  "bytecode": "0x6080604052600060025534801561001557600080fd5b50610ffd806100256000396000f3fe608060405234801561001057600080fd5b50600436106100935760003560e01c806362acf7761161006657806362acf7761461012257806374e9ce661461013e5780638d63339c1461016f578063a81493911461019f578063cff29dfd146101bd57610093565b80630b20fa821461009857806330d2ad98146100b657806335df00f7146100d25780634423c5f1146100f0575b600080fd5b6100a06101ef565b6040516100ad91906109db565b60405180910390f35b6100d060048036038101906100cb9190610b7c565b6101f9565b005b6100da6103d5565b6040516100e791906109db565b60405180910390f35b61010a60048036038101906101059190610beb565b6103df565b60405161011993929190610ca0565b60405180910390f35b61013c60048036038101906101379190610cde565b6104a1565b005b61015860048036038101906101539190610d3a565b6105b7565b604051610166929190610d7a565b60405180910390f35b61018960048036038101906101849190610beb565b61070c565b6040516101969190610daa565b60405180910390f35b6101a76107c3565b6040516101b491906109db565b60405180910390f35b6101d760048036038101906101d29190610beb565b6107d0565b6040516101e693929190610ca0565b60405180910390f35b6000600454905090565b8060008360405161020a9190610e08565b908152602001604051809103902060020154101561025d576040517f08c379a000000000000000000000000000000000000000000000000000000000815260040161025490610e6b565b60405180910390fd5b6000604051806060016040528085815260200184815260200183815250905060038190806001815401808255809150506001900390600052602060002090600302016000909190919091506000820151816000015560208201518160010190805190602001906102ce929190610892565b506040820151816002015550506000836040516102eb9190610e08565b908152602001604051809103902060020154600481905550816000846040516103149190610e08565b908152602001604051809103902060020160008282546103349190610eba565b9250508190555060008360405161034b9190610e08565b9081526020016040518091039020600201546005819055506000836040516103739190610e08565b90815260200160405180910390206002015460016000856040516103979190610e08565b908152602001604051809103902060000154815481106103ba576103b9610eee565b5b90600052602060002090600302016002018190555050505050565b6000600554905090565b600381815481106103ef57600080fd5b906000526020600020906003020160009150905080600001549080600101805461041890610f4c565b80601f016020809104026020016040519081016040528092919081815260200182805461044490610f4c565b80156104915780601f1061046657610100808354040283529160200191610491565b820191906000526020600020905b81548152906001019060200180831161047457829003601f168201915b5050505050908060020154905083565b6000604051806060016040528060025481526020018481526020018381525090506001819080600181540180825580915050600190039060005260206000209060030201600090919091909150600082015181600001556020820151816001019080519060200190610514929190610892565b5060408201518160020155505060016002548154811061053757610536610eee565b5b90600052602060002090600302016000846040516105559190610e08565b908152602001604051809103902060008201548160000155600182018160010190805461058190610f4c565b61058c929190610918565b5060028201548160020155905050600260008154809291906105ad90610f7e565b9190505550505050565b6000606082600385815481106105d0576105cf610eee565b5b90600052602060002090600302016000015414156106c857600384815481106105fc576105fb610eee565b5b9060005260206000209060030201600201546003858154811061062257610621610eee565b5b906000526020600020906003020160010180805461063f90610f4c565b80601f016020809104026020016040519081016040528092919081815260200182805461066b90610f4c565b80156106b85780601f1061068d576101008083540402835291602001916106b8565b820191906000526020600020905b81548152906001019060200180831161069b57829003601f168201915b5050505050905091509150610705565b60006040518060400160405280600381526020017f3078300000000000000000000000000000000000000000000000000000000000815250915091505b9250929050565b60606003828154811061072257610721610eee565b5b9060005260206000209060030201600101805461073e90610f4c565b80601f016020809104026020016040519081016040528092919081815260200182805461076a90610f4c565b80156107b75780601f1061078c576101008083540402835291602001916107b7565b820191906000526020600020905b81548152906001019060200180831161079a57829003601f168201915b50505050509050919050565b6000600380549050905090565b600181815481106107e057600080fd5b906000526020600020906003020160009150905080600001549080600101805461080990610f4c565b80601f016020809104026020016040519081016040528092919081815260200182805461083590610f4c565b80156108825780601f1061085757610100808354040283529160200191610882565b820191906000526020600020905b81548152906001019060200180831161086557829003601f168201915b5050505050908060020154905083565b82805461089e90610f4c565b90600052602060002090601f0160209004810192826108c05760008555610907565b82601f106108d957805160ff1916838001178555610907565b82800160010185558215610907579182015b828111156109065782518255916020019190600101906108eb565b5b50905061091491906109a5565b5090565b82805461092490610f4c565b90600052602060002090601f0160209004810192826109465760008555610994565b82601f106109575780548555610994565b8280016001018555821561099457600052602060002091601f016020900482015b82811115610993578254825591600101919060010190610978565b5b5090506109a191906109a5565b5090565b5b808211156109be5760008160009055506001016109a6565b5090565b6000819050919050565b6109d5816109c2565b82525050565b60006020820190506109f060008301846109cc565b92915050565b6000604051905090565b600080fd5b600080fd5b610a13816109c2565b8114610a1e57600080fd5b50565b600081359050610a3081610a0a565b92915050565b600080fd5b600080fd5b6000601f19601f8301169050919050565b7f4e487b7100000000000000000000000000000000000000000000000000000000600052604160045260246000fd5b610a8982610a40565b810181811067ffffffffffffffff82111715610aa857610aa7610a51565b5b80604052505050565b6000610abb6109f6565b9050610ac78282610a80565b919050565b600067ffffffffffffffff821115610ae757610ae6610a51565b5b610af082610a40565b9050602081019050919050565b82818337600083830152505050565b6000610b1f610b1a84610acc565b610ab1565b905082815260208101848484011115610b3b57610b3a610a3b565b5b610b46848285610afd565b509392505050565b600082601f830112610b6357610b62610a36565b5b8135610b73848260208601610b0c565b91505092915050565b600080600060608486031215610b9557610b94610a00565b5b6000610ba386828701610a21565b935050602084013567ffffffffffffffff811115610bc457610bc3610a05565b5b610bd086828701610b4e565b9250506040610be186828701610a21565b9150509250925092565b600060208284031215610c0157610c00610a00565b5b6000610c0f84828501610a21565b91505092915050565b600081519050919050565b600082825260208201905092915050565b60005b83811015610c52578082015181840152602081019050610c37565b83811115610c61576000848401525b50505050565b6000610c7282610c18565b610c7c8185610c23565b9350610c8c818560208601610c34565b610c9581610a40565b840191505092915050565b6000606082019050610cb560008301866109cc565b8181036020830152610cc78185610c67565b9050610cd660408301846109cc565b949350505050565b60008060408385031215610cf557610cf4610a00565b5b600083013567ffffffffffffffff811115610d1357610d12610a05565b5b610d1f85828601610b4e565b9250506020610d3085828601610a21565b9150509250929050565b60008060408385031215610d5157610d50610a00565b5b6000610d5f85828601610a21565b9250506020610d7085828601610a21565b9150509250929050565b6000604082019050610d8f60008301856109cc565b8181036020830152610da18184610c67565b90509392505050565b60006020820190508181036000830152610dc48184610c67565b905092915050565b600081905092915050565b6000610de282610c18565b610dec8185610dcc565b9350610dfc818560208601610c34565b80840191505092915050565b6000610e148284610dd7565b915081905092915050565b7f74686973207472616374696f6e20697320726576657274656400000000000000600082015250565b6000610e55601983610c23565b9150610e6082610e1f565b602082019050919050565b60006020820190508181036000830152610e8481610e48565b9050919050565b7f4e487b7100000000000000000000000000000000000000000000000000000000600052601160045260246000fd5b6000610ec5826109c2565b9150610ed0836109c2565b925082821015610ee357610ee2610e8b565b5b828203905092915050565b7f4e487b7100000000000000000000000000000000000000000000000000000000600052603260045260246000fd5b7f4e487b7100000000000000000000000000000000000000000000000000000000600052602260045260246000fd5b60006002820490506001821680610f6457607f821691505b60208210811415610f7857610f77610f1d565b5b50919050565b6000610f89826109c2565b91507fffffffffffffffffffffffffffffffffffffffffffffffffffffffffffffffff821415610fbc57610fbb610e8b565b5b60018201905091905056fea2646970667358221220e7e43ae6428934a93bbfe50e762f57f3788f562beb8a2c0e5f53d324afe9cb3e64736f6c634300080b0033",
  "immutableReferences": {},
  "source": "// SPDX-License-Identifier: MIT\npragma solidity ^0.8.9;\n\ncontract Auction{\n    struct bidder{\n        uint bidderId;\n        string addr;\n        uint total_tokens;\n    }\n    struct item{\n        uint itemid;\n        uint[] itemTokens;\n    }\n\n    struct bid{\n        uint itemid;\n        string bidder_address;\n        uint amount;\n        \n    }\n    \n    \n    \n    mapping(string => bidder) tokendetails; //map of address to bidder\n    bidder[] public   bidders; //contains list of bidders\n    uint bidderCount =0;\n    bid [] public bids;\n    uint myid;\n    uint myid_af;\n    \n    function register_bidder(string memory add1,uint n) public{\n        // create an object to point to bidder structure.\n        bidder memory next_bidder = bidder(bidderCount,add1,n);\n        //Rgistered bidder is inserted into bidders\n        bidders.push(next_bidder);\n        // store bidder details in tokendetails mapping.\n        //mapping from bidder address to bidder structure\n        tokendetails[add1] = bidders[bidderCount];\n        \n        bidderCount++;\n        \n        }\n    function bid_item(uint  itemid,string memory addr,uint tokens) public {\n            // Transaction is reverted if the bid tokens less than the total tokens of the bidder\n                    \n            if(tokendetails[addr].total_tokens <  tokens)\n               revert(\"this traction is reverted\");\n            \n            bid memory next_bid = bid(itemid,addr,tokens);\n            bids.push(next_bid);\n            myid = tokendetails[addr].total_tokens;\n            // bid tokens must be subtracted from total tokens of the bidder\n            \n            tokendetails[addr].total_tokens -= tokens;\n            \n            myid_af = tokendetails[addr].total_tokens;\n            // bidders is an array of structures.\n            // tokendetails[addr].bidderId gives the bidder address\n            // bidders[tokendetails[addr].bidderId] points to bidder structure\n\n            bidders[tokendetails[addr].bidderId].total_tokens = tokendetails[addr].total_tokens;\n\n       \n            \n\n             \n\n        }\n    \n    \n    function getmyid() public view returns(uint ){\n        return myid;\n    }\n    function getmyid_af() public view returns(uint ){\n        return myid_af;\n    }\n    function getbid_details(uint i,uint _itemid) public view returns(uint,string memory){\n        if (bids[i].itemid == _itemid)       \n        return (bids[i].amount,bids[i].bidder_address);\n        else\n        return (0,'0x0');\n        \n    }\n    function bid_length() public view returns(uint){\n        return bids.length;\n    }\n    function winner_address(uint id) public view returns(string memory ){\n        return bids[id].bidder_address;\n    }\n\n    \n}",
  "sourcePath": "/home/srinivas/nft1/contracts/Auction.sol",
  "compiler": {
    "name": "solc",
    "version": "0.8.11+commit.d7f03943.Emscripten.clang"
  },
  "schemaVersion": "3.4.3",
  "updatedAt": "2022-02-16T05:05:16.723Z",
  "networkType": "ethereum",
  "devdoc": {
    "kind": "dev",
    "methods": {},
    "version": 1
  },
  "userdoc": {
    "kind": "user",
    "methods": {},
    "version": 1
  }
}