{
  "contractName": "SimpleNFT",
  "abi": [
    {
      "inputs": [],
      "stateMutability": "nonpayable",
      "type": "constructor"
    },
    {
      "anonymous": false,
      "inputs": [
        {
          "indexed": true,
          "internalType": "address",
          "name": "owner",
          "type": "address"
        },
        {
          "indexed": true,
          "internalType": "address",
          "name": "approved",
          "type": "address"
        },
        {
          "indexed": true,
          "internalType": "uint256",
          "name": "tokenId",
          "type": "uint256"
        }
      ],
      "name": "Approval",
      "type": "event"
    },
    {
      "anonymous": false,
      "inputs": [
        {
          "indexed": true,
          "internalType": "address",
          "name": "owner",
          "type": "address"
        },
        {
          "indexed": true,
          "internalType": "address",
          "name": "operator",
          "type": "address"
        },
        {
          "indexed": false,
          "internalType": "bool",
          "name": "approved",
          "type": "bool"
        }
      ],
      "name": "ApprovalForAll",
      "type": "event"
    },
    {
      "anonymous": false,
      "inputs": [
        {
          "indexed": true,
          "internalType": "address",
          "name": "from",
          "type": "address"
        },
        {
          "indexed": true,
          "internalType": "address",
          "name": "to",
          "type": "address"
        },
        {
          "indexed": true,
          "internalType": "uint256",
          "name": "tokenId",
          "type": "uint256"
        }
      ],
      "name": "Transfer",
      "type": "event"
    },
    {
      "inputs": [
        {
          "internalType": "uint256",
          "name": "",
          "type": "uint256"
        }
      ],
      "name": "_listed",
      "outputs": [
        {
          "internalType": "uint256",
          "name": "id",
          "type": "uint256"
        },
        {
          "internalType": "uint256",
          "name": "price",
          "type": "uint256"
        },
        {
          "internalType": "bool",
          "name": "isForSale",
          "type": "bool"
        }
      ],
      "stateMutability": "view",
      "type": "function",
      "constant": true
    },
    {
      "inputs": [
        {
          "internalType": "address",
          "name": "to",
          "type": "address"
        },
        {
          "internalType": "uint256",
          "name": "tokenId",
          "type": "uint256"
        }
      ],
      "name": "approve",
      "outputs": [],
      "stateMutability": "nonpayable",
      "type": "function"
    },
    {
      "inputs": [
        {
          "internalType": "address",
          "name": "owner",
          "type": "address"
        }
      ],
      "name": "balanceOf",
      "outputs": [
        {
          "internalType": "uint256",
          "name": "",
          "type": "uint256"
        }
      ],
      "stateMutability": "view",
      "type": "function",
      "constant": true
    },
    {
      "inputs": [
        {
          "internalType": "uint256",
          "name": "tokenId",
          "type": "uint256"
        }
      ],
      "name": "getApproved",
      "outputs": [
        {
          "internalType": "address",
          "name": "",
          "type": "address"
        }
      ],
      "stateMutability": "view",
      "type": "function",
      "constant": true
    },
    {
      "inputs": [
        {
          "internalType": "address",
          "name": "owner",
          "type": "address"
        },
        {
          "internalType": "address",
          "name": "operator",
          "type": "address"
        }
      ],
      "name": "isApprovedForAll",
      "outputs": [
        {
          "internalType": "bool",
          "name": "",
          "type": "bool"
        }
      ],
      "stateMutability": "view",
      "type": "function",
      "constant": true
    },
    {
      "inputs": [],
      "name": "name",
      "outputs": [
        {
          "internalType": "string",
          "name": "",
          "type": "string"
        }
      ],
      "stateMutability": "view",
      "type": "function",
      "constant": true
    },
    {
      "inputs": [
        {
          "internalType": "uint256",
          "name": "tokenId",
          "type": "uint256"
        }
      ],
      "name": "ownerOf",
      "outputs": [
        {
          "internalType": "address",
          "name": "",
          "type": "address"
        }
      ],
      "stateMutability": "view",
      "type": "function",
      "constant": true
    },
    {
      "inputs": [
        {
          "internalType": "address",
          "name": "from",
          "type": "address"
        },
        {
          "internalType": "address",
          "name": "to",
          "type": "address"
        },
        {
          "internalType": "uint256",
          "name": "tokenId",
          "type": "uint256"
        }
      ],
      "name": "safeTransferFrom",
      "outputs": [],
      "stateMutability": "nonpayable",
      "type": "function"
    },
    {
      "inputs": [
        {
          "internalType": "address",
          "name": "from",
          "type": "address"
        },
        {
          "internalType": "address",
          "name": "to",
          "type": "address"
        },
        {
          "internalType": "uint256",
          "name": "tokenId",
          "type": "uint256"
        },
        {
          "internalType": "bytes",
          "name": "_data",
          "type": "bytes"
        }
      ],
      "name": "safeTransferFrom",
      "outputs": [],
      "stateMutability": "nonpayable",
      "type": "function"
    },
    {
      "inputs": [
        {
          "internalType": "address",
          "name": "operator",
          "type": "address"
        },
        {
          "internalType": "bool",
          "name": "approved",
          "type": "bool"
        }
      ],
      "name": "setApprovalForAll",
      "outputs": [],
      "stateMutability": "nonpayable",
      "type": "function"
    },
    {
      "inputs": [
        {
          "internalType": "bytes4",
          "name": "interfaceId",
          "type": "bytes4"
        }
      ],
      "name": "supportsInterface",
      "outputs": [
        {
          "internalType": "bool",
          "name": "",
          "type": "bool"
        }
      ],
      "stateMutability": "view",
      "type": "function",
      "constant": true
    },
    {
      "inputs": [],
      "name": "symbol",
      "outputs": [
        {
          "internalType": "string",
          "name": "",
          "type": "string"
        }
      ],
      "stateMutability": "view",
      "type": "function",
      "constant": true
    },
    {
      "inputs": [
        {
          "internalType": "uint256",
          "name": "tokenId",
          "type": "uint256"
        }
      ],
      "name": "tokenURI",
      "outputs": [
        {
          "internalType": "string",
          "name": "",
          "type": "string"
        }
      ],
      "stateMutability": "view",
      "type": "function",
      "constant": true
    },
    {
      "inputs": [
        {
          "internalType": "address",
          "name": "from",
          "type": "address"
        },
        {
          "internalType": "address",
          "name": "to",
          "type": "address"
        },
        {
          "internalType": "uint256",
          "name": "tokenId",
          "type": "uint256"
        }
      ],
      "name": "transferFrom",
      "outputs": [],
      "stateMutability": "nonpayable",
      "type": "function"
    },
    {
      "inputs": [
        {
          "internalType": "uint256",
          "name": "nftId",
          "type": "uint256"
        }
      ],
      "name": "getSalePrice",
      "outputs": [
        {
          "internalType": "uint256",
          "name": "",
          "type": "uint256"
        }
      ],
      "stateMutability": "view",
      "type": "function",
      "constant": true
    },
    {
      "inputs": [
        {
          "internalType": "uint256",
          "name": "nftId",
          "type": "uint256"
        }
      ],
      "name": "markAsSold",
      "outputs": [],
      "stateMutability": "nonpayable",
      "type": "function"
    },
    {
      "inputs": [
        {
          "internalType": "string",
          "name": "tokenURI",
          "type": "string"
        },
        {
          "internalType": "uint256",
          "name": "price",
          "type": "uint256"
        },
        {
          "internalType": "address",
          "name": "minter",
          "type": "address"
        }
      ],
      "name": "mintNFT",
      "outputs": [],
      "stateMutability": "nonpayable",
      "type": "function"
    },
    {
      "inputs": [
        {
          "internalType": "address",
          "name": "currentOwner",
          "type": "address"
        },
        {
          "internalType": "address",
          "name": "newOwner",
          "type": "address"
        },
        {
          "internalType": "uint256",
          "name": "nftId",
          "type": "uint256"
        }
      ],
      "name": "transferNFT",
      "outputs": [],
      "stateMutability": "nonpayable",
      "type": "function"
    },
    {
      "inputs": [
        {
          "internalType": "uint256",
          "name": "nftId",
          "type": "uint256"
        }
      ],
      "name": "getNftStatus",
      "outputs": [
        {
          "internalType": "bool",
          "name": "",
          "type": "bool"
        }
      ],
      "stateMutability": "view",
      "type": "function",
      "constant": true
    },
    {
      "inputs": [
        {
          "internalType": "uint256",
          "name": "i",
          "type": "uint256"
        }
      ],
      "name": "getitemId",
      "outputs": [
        {
          "internalType": "uint256",
          "name": "",
          "type": "uint256"
        }
      ],
      "stateMutability": "view",
      "type": "function",
      "constant": true
    }
  ],
  "bytecode": "0x60806040523480156200001157600080fd5b506040518060400160405280600f81526020017f5a776569636861696e4e465437323100000000000000000000000000000000008152506040518060400160405280600481526020017f5a4e465400000000000000000000000000000000000000000000000000000000815250816000908051906020019062000096929190620000b8565b508060019080519060200190620000af929190620000b8565b505050620001cd565b828054620000c69062000197565b90600052602060002090601f016020900481019282620000ea576000855562000136565b82601f106200010557805160ff191683800117855562000136565b8280016001018555821562000136579182015b828111156200013557825182559160200191906001019062000118565b5b50905062000145919062000149565b5090565b5b80821115620001645760008160009055506001016200014a565b5090565b7f4e487b7100000000000000000000000000000000000000000000000000000000600052602260045260246000fd5b60006002820490506001821680620001b057607f821691505b60208210811415620001c757620001c662000168565b5b50919050565b612f4080620001dd6000396000f3fe608060405234801561001057600080fd5b506004361061012c5760003560e01c806363bae8c0116100ad578063b88d4fde11610071578063b88d4fde14610351578063c87b56dd1461036d578063e985e9c51461039d578063ec22b70d146103cd578063f8eb5fc5146103ff5761012c565b806363bae8c0146102af57806369e9cae1146102cb57806370a08231146102e757806395d89b4114610317578063a22cb465146103355761012c565b806323b872dd116100f457806323b872dd146101fb5780632931a10814610217578063321267b11461023357806342842e0e146102635780636352211e1461027f5761012c565b806301ffc9a71461013157806306fdde0314610161578063081812fc1461017f578063095ea7b3146101af5780630fda36b6146101cb575b600080fd5b61014b60048036038101906101469190611c58565b61042f565b6040516101589190611ca0565b60405180910390f35b610169610511565b6040516101769190611d54565b60405180910390f35b61019960048036038101906101949190611dac565b6105a3565b6040516101a69190611e1a565b60405180910390f35b6101c960048036038101906101c49190611e61565b610628565b005b6101e560048036038101906101e09190611dac565b610740565b6040516101f29190611eb0565b60405180910390f35b61021560048036038101906102109190611ecb565b61076f565b005b610231600480360381019061022c9190611dac565b6107cf565b005b61024d60048036038101906102489190611dac565b610816565b60405161025a9190611ca0565b60405180910390f35b61027d60048036038101906102789190611ecb565b610857565b005b61029960048036038101906102949190611dac565b610877565b6040516102a69190611e1a565b60405180910390f35b6102c960048036038101906102c49190612053565b610929565b005b6102e560048036038101906102e09190611ecb565b6109e0565b005b61030160048036038101906102fc91906120c2565b6109f0565b60405161030e9190611eb0565b60405180910390f35b61031f610aa8565b60405161032c9190611d54565b60405180910390f35b61034f600480360381019061034a919061211b565b610b3a565b005b61036b600480360381019061036691906121fc565b610cbb565b005b61038760048036038101906103829190611dac565b610d1d565b6040516103949190611d54565b60405180910390f35b6103b760048036038101906103b2919061227f565b610e6f565b6040516103c49190611ca0565b60405180910390f35b6103e760048036038101906103e29190611dac565b610f03565b6040516103f6939291906122bf565b60405180910390f35b61041960048036038101906104149190611dac565b610f4a565b6040516104269190611eb0565b60405180910390f35b60007f80ac58cd000000000000000000000000000000000000000000000000000000007bffffffffffffffffffffffffffffffffffffffffffffffffffffffff1916827bffffffffffffffffffffffffffffffffffffffffffffffffffffffff191614806104fa57507f5b5e139f000000000000000000000000000000000000000000000000000000007bffffffffffffffffffffffffffffffffffffffffffffffffffffffff1916827bffffffffffffffffffffffffffffffffffffffffffffffffffffffff1916145b8061050a575061050982610f7e565b5b9050919050565b60606000805461052090612325565b80601f016020809104026020016040519081016040528092919081815260200182805461054c90612325565b80156105995780601f1061056e57610100808354040283529160200191610599565b820191906000526020600020905b81548152906001019060200180831161057c57829003601f168201915b5050505050905090565b60006105ae82610fe8565b6105ed576040517f08c379a00000000000000000000000000000000000000000000000000000000081526004016105e4906123c9565b60405180910390fd5b6004600083815260200190815260200160002060009054906101000a900473ffffffffffffffffffffffffffffffffffffffff169050919050565b600061063382610877565b90508073ffffffffffffffffffffffffffffffffffffffff168373ffffffffffffffffffffffffffffffffffffffff1614156106a4576040517f08c379a000000000000000000000000000000000000000000000000000000000815260040161069b9061245b565b60405180910390fd5b8073ffffffffffffffffffffffffffffffffffffffff166106c3611054565b73ffffffffffffffffffffffffffffffffffffffff1614806106f257506106f1816106ec611054565b610e6f565b5b610731576040517f08c379a0000000000000000000000000000000000000000000000000000000008152600401610728906124ed565b60405180910390fd5b61073b838361105c565b505050565b6000600882815481106107565761075561250d565b5b9060005260206000209060030201600001549050919050565b61078061077a611054565b82611115565b6107bf576040517f08c379a00000000000000000000000000000000000000000000000000000000081526004016107b6906125ae565b60405180910390fd5b6107ca8383836111f3565b505050565b6000600882815481106107e5576107e461250d565b5b9060005260206000209060030201905060008160020160006101000a81548160ff0219169083151502179055505050565b6000806008838154811061082d5761082c61250d565b5b906000526020600020906003020190508060020160009054906101000a900460ff16915050919050565b61087283838360405180602001604052806000815250610cbb565b505050565b6000806002600084815260200190815260200160002060009054906101000a900473ffffffffffffffffffffffffffffffffffffffff169050600073ffffffffffffffffffffffffffffffffffffffff168173ffffffffffffffffffffffffffffffffffffffff161415610920576040517f08c379a000000000000000000000000000000000000000000000000000000000815260040161091790612640565b60405180910390fd5b80915050919050565b6000610935600761144f565b9050610941828261145d565b61094b818561147b565b600060405180606001604052808381526020018581526020016001151581525090506008819080600181540180825580915050600190039060005260206000209060030201600090919091909150600082015181600001556020820151816001015560408201518160020160006101000a81548160ff02191690831515021790555050506109d960076114ef565b5050505050565b6109eb838383610857565b505050565b60008073ffffffffffffffffffffffffffffffffffffffff168273ffffffffffffffffffffffffffffffffffffffff161415610a61576040517f08c379a0000000000000000000000000000000000000000000000000000000008152600401610a58906126d2565b60405180910390fd5b600360008373ffffffffffffffffffffffffffffffffffffffff1673ffffffffffffffffffffffffffffffffffffffff168152602001908152602001600020549050919050565b606060018054610ab790612325565b80601f0160208091040260200160405190810160405280929190818152602001828054610ae390612325565b8015610b305780601f10610b0557610100808354040283529160200191610b30565b820191906000526020600020905b815481529060010190602001808311610b1357829003601f168201915b5050505050905090565b610b42611054565b73ffffffffffffffffffffffffffffffffffffffff168273ffffffffffffffffffffffffffffffffffffffff161415610bb0576040517f08c379a0000000000000000000000000000000000000000000000000000000008152600401610ba79061273e565b60405180910390fd5b8060056000610bbd611054565b73ffffffffffffffffffffffffffffffffffffffff1673ffffffffffffffffffffffffffffffffffffffff16815260200190815260200160002060008473ffffffffffffffffffffffffffffffffffffffff1673ffffffffffffffffffffffffffffffffffffffff16815260200190815260200160002060006101000a81548160ff0219169083151502179055508173ffffffffffffffffffffffffffffffffffffffff16610c6a611054565b73ffffffffffffffffffffffffffffffffffffffff167f17307eab39ab6107e8899845ad3d59bd9653f200f220920489ca2b5937696c3183604051610caf9190611ca0565b60405180910390a35050565b610ccc610cc6611054565b83611115565b610d0b576040517f08c379a0000000000000000000000000000000000000000000000000000000008152600401610d02906125ae565b60405180910390fd5b610d1784848484611505565b50505050565b6060610d2882610fe8565b610d67576040517f08c379a0000000000000000000000000000000000000000000000000000000008152600401610d5e906127d0565b60405180910390fd5b6000600660008481526020019081526020016000208054610d8790612325565b80601f0160208091040260200160405190810160405280929190818152602001828054610db390612325565b8015610e005780601f10610dd557610100808354040283529160200191610e00565b820191906000526020600020905b815481529060010190602001808311610de357829003601f168201915b505050505090506000610e11611561565b9050600081511415610e27578192505050610e6a565b600082511115610e5c578082604051602001610e4492919061282c565b60405160208183030381529060405292505050610e6a565b610e6584611578565b925050505b919050565b6000600560008473ffffffffffffffffffffffffffffffffffffffff1673ffffffffffffffffffffffffffffffffffffffff16815260200190815260200160002060008373ffffffffffffffffffffffffffffffffffffffff1673ffffffffffffffffffffffffffffffffffffffff16815260200190815260200160002060009054906101000a900460ff16905092915050565b60088181548110610f1357600080fd5b90600052602060002090600302016000915090508060000154908060010154908060020160009054906101000a900460ff16905083565b60008060088381548110610f6157610f6061250d565b5b906000526020600020906003020190508060010154915050919050565b60007f01ffc9a7000000000000000000000000000000000000000000000000000000007bffffffffffffffffffffffffffffffffffffffffffffffffffffffff1916827bffffffffffffffffffffffffffffffffffffffffffffffffffffffff1916149050919050565b60008073ffffffffffffffffffffffffffffffffffffffff166002600084815260200190815260200160002060009054906101000a900473ffffffffffffffffffffffffffffffffffffffff1673ffffffffffffffffffffffffffffffffffffffff1614159050919050565b600033905090565b816004600083815260200190815260200160002060006101000a81548173ffffffffffffffffffffffffffffffffffffffff021916908373ffffffffffffffffffffffffffffffffffffffff160217905550808273ffffffffffffffffffffffffffffffffffffffff166110cf83610877565b73ffffffffffffffffffffffffffffffffffffffff167f8c5be1e5ebec7d5bd14f71427d1e84f3dd0314c0f7b2291e5b200ac8c7c3b92560405160405180910390a45050565b600061112082610fe8565b61115f576040517f08c379a0000000000000000000000000000000000000000000000000000000008152600401611156906128c2565b60405180910390fd5b600061116a83610877565b90508073ffffffffffffffffffffffffffffffffffffffff168473ffffffffffffffffffffffffffffffffffffffff1614806111d957508373ffffffffffffffffffffffffffffffffffffffff166111c1846105a3565b73ffffffffffffffffffffffffffffffffffffffff16145b806111ea57506111e98185610e6f565b5b91505092915050565b8273ffffffffffffffffffffffffffffffffffffffff1661121382610877565b73ffffffffffffffffffffffffffffffffffffffff1614611269576040517f08c379a000000000000000000000000000000000000000000000000000000000815260040161126090612954565b60405180910390fd5b600073ffffffffffffffffffffffffffffffffffffffff168273ffffffffffffffffffffffffffffffffffffffff1614156112d9576040517f08c379a00000000000000000000000000000000000000000000000000000000081526004016112d0906129e6565b60405180910390fd5b6112e483838361161f565b6112ef60008261105c565b6001600360008573ffffffffffffffffffffffffffffffffffffffff1673ffffffffffffffffffffffffffffffffffffffff168152602001908152602001600020600082825461133f9190612a35565b925050819055506001600360008473ffffffffffffffffffffffffffffffffffffffff1673ffffffffffffffffffffffffffffffffffffffff16815260200190815260200160002060008282546113969190612a69565b92505081905550816002600083815260200190815260200160002060006101000a81548173ffffffffffffffffffffffffffffffffffffffff021916908373ffffffffffffffffffffffffffffffffffffffff160217905550808273ffffffffffffffffffffffffffffffffffffffff168473ffffffffffffffffffffffffffffffffffffffff167fddf252ad1be2c89b69c2b068fc378daa952ba7f163c4a11628f55a4df523b3ef60405160405180910390a4505050565b600081600001549050919050565b611477828260405180602001604052806000815250611624565b5050565b61148482610fe8565b6114c3576040517f08c379a00000000000000000000000000000000000000000000000000000000081526004016114ba90612b31565b60405180910390fd5b806006600084815260200190815260200160002090805190602001906114ea929190611b49565b505050565b6001816000016000828254019250508190555050565b6115108484846111f3565b61151c8484848461167f565b61155b576040517f08c379a000000000000000000000000000000000000000000000000000000000815260040161155290612bc3565b60405180910390fd5b50505050565b606060405180602001604052806000815250905090565b606061158382610fe8565b6115c2576040517f08c379a00000000000000000000000000000000000000000000000000000000081526004016115b990612c55565b60405180910390fd5b60006115cc611561565b905060008151116115ec5760405180602001604052806000815250611617565b806115f684611807565b60405160200161160792919061282c565b6040516020818303038152906040525b915050919050565b505050565b61162e8383611968565b61163b600084848461167f565b61167a576040517f08c379a000000000000000000000000000000000000000000000000000000000815260040161167190612bc3565b60405180910390fd5b505050565b60006116a08473ffffffffffffffffffffffffffffffffffffffff16611b36565b156117fa578373ffffffffffffffffffffffffffffffffffffffff1663150b7a026116c9611054565b8786866040518563ffffffff1660e01b81526004016116eb9493929190612cca565b6020604051808303816000875af192505050801561172757506040513d601f19601f820116820180604052508101906117249190612d2b565b60015b6117aa573d8060008114611757576040519150601f19603f3d011682016040523d82523d6000602084013e61175c565b606091505b506000815114156117a2576040517f08c379a000000000000000000000000000000000000000000000000000000000815260040161179990612bc3565b60405180910390fd5b805181602001fd5b63150b7a0260e01b7bffffffffffffffffffffffffffffffffffffffffffffffffffffffff1916817bffffffffffffffffffffffffffffffffffffffffffffffffffffffff1916149150506117ff565b600190505b949350505050565b6060600082141561184f576040518060400160405280600181526020017f30000000000000000000000000000000000000000000000000000000000000008152509050611963565b600082905060005b6000821461188157808061186a90612d58565b915050600a8261187a9190612dd0565b9150611857565b60008167ffffffffffffffff81111561189d5761189c611f28565b5b6040519080825280601f01601f1916602001820160405280156118cf5781602001600182028036833780820191505090505b5090505b6000851461195c576001826118e89190612a35565b9150600a856118f79190612e01565b60306119039190612a69565b60f81b8183815181106119195761191861250d565b5b60200101907effffffffffffffffffffffffffffffffffffffffffffffffffffffffffffff1916908160001a905350600a856119559190612dd0565b94506118d3565b8093505050505b919050565b600073ffffffffffffffffffffffffffffffffffffffff168273ffffffffffffffffffffffffffffffffffffffff1614156119d8576040517f08c379a00000000000000000000000000000000000000000000000000000000081526004016119cf90612e7e565b60405180910390fd5b6119e181610fe8565b15611a21576040517f08c379a0000000000000000000000000000000000000000000000000000000008152600401611a1890612eea565b60405180910390fd5b611a2d6000838361161f565b6001600360008473ffffffffffffffffffffffffffffffffffffffff1673ffffffffffffffffffffffffffffffffffffffff1681526020019081526020016000206000828254611a7d9190612a69565b92505081905550816002600083815260200190815260200160002060006101000a81548173ffffffffffffffffffffffffffffffffffffffff021916908373ffffffffffffffffffffffffffffffffffffffff160217905550808273ffffffffffffffffffffffffffffffffffffffff16600073ffffffffffffffffffffffffffffffffffffffff167fddf252ad1be2c89b69c2b068fc378daa952ba7f163c4a11628f55a4df523b3ef60405160405180910390a45050565b600080823b905060008111915050919050565b828054611b5590612325565b90600052602060002090601f016020900481019282611b775760008555611bbe565b82601f10611b9057805160ff1916838001178555611bbe565b82800160010185558215611bbe579182015b82811115611bbd578251825591602001919060010190611ba2565b5b509050611bcb9190611bcf565b5090565b5b80821115611be8576000816000905550600101611bd0565b5090565b6000604051905090565b600080fd5b600080fd5b60007fffffffff0000000000000000000000000000000000000000000000000000000082169050919050565b611c3581611c00565b8114611c4057600080fd5b50565b600081359050611c5281611c2c565b92915050565b600060208284031215611c6e57611c6d611bf6565b5b6000611c7c84828501611c43565b91505092915050565b60008115159050919050565b611c9a81611c85565b82525050565b6000602082019050611cb56000830184611c91565b92915050565b600081519050919050565b600082825260208201905092915050565b60005b83811015611cf5578082015181840152602081019050611cda565b83811115611d04576000848401525b50505050565b6000601f19601f8301169050919050565b6000611d2682611cbb565b611d308185611cc6565b9350611d40818560208601611cd7565b611d4981611d0a565b840191505092915050565b60006020820190508181036000830152611d6e8184611d1b565b905092915050565b6000819050919050565b611d8981611d76565b8114611d9457600080fd5b50565b600081359050611da681611d80565b92915050565b600060208284031215611dc257611dc1611bf6565b5b6000611dd084828501611d97565b91505092915050565b600073ffffffffffffffffffffffffffffffffffffffff82169050919050565b6000611e0482611dd9565b9050919050565b611e1481611df9565b82525050565b6000602082019050611e2f6000830184611e0b565b92915050565b611e3e81611df9565b8114611e4957600080fd5b50565b600081359050611e5b81611e35565b92915050565b60008060408385031215611e7857611e77611bf6565b5b6000611e8685828601611e4c565b9250506020611e9785828601611d97565b9150509250929050565b611eaa81611d76565b82525050565b6000602082019050611ec56000830184611ea1565b92915050565b600080600060608486031215611ee457611ee3611bf6565b5b6000611ef286828701611e4c565b9350506020611f0386828701611e4c565b9250506040611f1486828701611d97565b9150509250925092565b600080fd5b600080fd5b7f4e487b7100000000000000000000000000000000000000000000000000000000600052604160045260246000fd5b611f6082611d0a565b810181811067ffffffffffffffff82111715611f7f57611f7e611f28565b5b80604052505050565b6000611f92611bec565b9050611f9e8282611f57565b919050565b600067ffffffffffffffff821115611fbe57611fbd611f28565b5b611fc782611d0a565b9050602081019050919050565b82818337600083830152505050565b6000611ff6611ff184611fa3565b611f88565b90508281526020810184848401111561201257612011611f23565b5b61201d848285611fd4565b509392505050565b600082601f83011261203a57612039611f1e565b5b813561204a848260208601611fe3565b91505092915050565b60008060006060848603121561206c5761206b611bf6565b5b600084013567ffffffffffffffff81111561208a57612089611bfb565b5b61209686828701612025565b93505060206120a786828701611d97565b92505060406120b886828701611e4c565b9150509250925092565b6000602082840312156120d8576120d7611bf6565b5b60006120e684828501611e4c565b91505092915050565b6120f881611c85565b811461210357600080fd5b50565b600081359050612115816120ef565b92915050565b6000806040838503121561213257612131611bf6565b5b600061214085828601611e4c565b925050602061215185828601612106565b9150509250929050565b600067ffffffffffffffff82111561217657612175611f28565b5b61217f82611d0a565b9050602081019050919050565b600061219f61219a8461215b565b611f88565b9050828152602081018484840111156121bb576121ba611f23565b5b6121c6848285611fd4565b509392505050565b600082601f8301126121e3576121e2611f1e565b5b81356121f384826020860161218c565b91505092915050565b6000806000806080858703121561221657612215611bf6565b5b600061222487828801611e4c565b945050602061223587828801611e4c565b935050604061224687828801611d97565b925050606085013567ffffffffffffffff81111561226757612266611bfb565b5b612273878288016121ce565b91505092959194509250565b6000806040838503121561229657612295611bf6565b5b60006122a485828601611e4c565b92505060206122b585828601611e4c565b9150509250929050565b60006060820190506122d46000830186611ea1565b6122e16020830185611ea1565b6122ee6040830184611c91565b949350505050565b7f4e487b7100000000000000000000000000000000000000000000000000000000600052602260045260246000fd5b6000600282049050600182168061233d57607f821691505b60208210811415612351576123506122f6565b5b50919050565b7f4552433732313a20617070726f76656420717565727920666f72206e6f6e657860008201527f697374656e7420746f6b656e0000000000000000000000000000000000000000602082015250565b60006123b3602c83611cc6565b91506123be82612357565b604082019050919050565b600060208201905081810360008301526123e2816123a6565b9050919050565b7f4552433732313a20617070726f76616c20746f2063757272656e74206f776e6560008201527f7200000000000000000000000000000000000000000000000000000000000000602082015250565b6000612445602183611cc6565b9150612450826123e9565b604082019050919050565b6000602082019050818103600083015261247481612438565b9050919050565b7f4552433732313a20617070726f76652063616c6c6572206973206e6f74206f7760008201527f6e6572206e6f7220617070726f76656420666f7220616c6c0000000000000000602082015250565b60006124d7603883611cc6565b91506124e28261247b565b604082019050919050565b60006020820190508181036000830152612506816124ca565b9050919050565b7f4e487b7100000000000000000000000000000000000000000000000000000000600052603260045260246000fd5b7f4552433732313a207472616e736665722063616c6c6572206973206e6f74206f60008201527f776e6572206e6f7220617070726f766564000000000000000000000000000000602082015250565b6000612598603183611cc6565b91506125a38261253c565b604082019050919050565b600060208201905081810360008301526125c78161258b565b9050919050565b7f4552433732313a206f776e657220717565727920666f72206e6f6e657869737460008201527f656e7420746f6b656e0000000000000000000000000000000000000000000000602082015250565b600061262a602983611cc6565b9150612635826125ce565b604082019050919050565b600060208201905081810360008301526126598161261d565b9050919050565b7f4552433732313a2062616c616e636520717565727920666f7220746865207a6560008201527f726f206164647265737300000000000000000000000000000000000000000000602082015250565b60006126bc602a83611cc6565b91506126c782612660565b604082019050919050565b600060208201905081810360008301526126eb816126af565b9050919050565b7f4552433732313a20617070726f766520746f2063616c6c657200000000000000600082015250565b6000612728601983611cc6565b9150612733826126f2565b602082019050919050565b600060208201905081810360008301526127578161271b565b9050919050565b7f45524337323155524953746f726167653a2055524920717565727920666f722060008201527f6e6f6e6578697374656e7420746f6b656e000000000000000000000000000000602082015250565b60006127ba603183611cc6565b91506127c58261275e565b604082019050919050565b600060208201905081810360008301526127e9816127ad565b9050919050565b600081905092915050565b600061280682611cbb565b61281081856127f0565b9350612820818560208601611cd7565b80840191505092915050565b600061283882856127fb565b915061284482846127fb565b91508190509392505050565b7f4552433732313a206f70657261746f7220717565727920666f72206e6f6e657860008201527f697374656e7420746f6b656e0000000000000000000000000000000000000000602082015250565b60006128ac602c83611cc6565b91506128b782612850565b604082019050919050565b600060208201905081810360008301526128db8161289f565b9050919050565b7f4552433732313a207472616e73666572206f6620746f6b656e2074686174206960008201527f73206e6f74206f776e0000000000000000000000000000000000000000000000602082015250565b600061293e602983611cc6565b9150612949826128e2565b604082019050919050565b6000602082019050818103600083015261296d81612931565b9050919050565b7f4552433732313a207472616e7366657220746f20746865207a65726f2061646460008201527f7265737300000000000000000000000000000000000000000000000000000000602082015250565b60006129d0602483611cc6565b91506129db82612974565b604082019050919050565b600060208201905081810360008301526129ff816129c3565b9050919050565b7f4e487b7100000000000000000000000000000000000000000000000000000000600052601160045260246000fd5b6000612a4082611d76565b9150612a4b83611d76565b925082821015612a5e57612a5d612a06565b5b828203905092915050565b6000612a7482611d76565b9150612a7f83611d76565b9250827fffffffffffffffffffffffffffffffffffffffffffffffffffffffffffffffff03821115612ab457612ab3612a06565b5b828201905092915050565b7f45524337323155524953746f726167653a2055524920736574206f66206e6f6e60008201527f6578697374656e7420746f6b656e000000000000000000000000000000000000602082015250565b6000612b1b602e83611cc6565b9150612b2682612abf565b604082019050919050565b60006020820190508181036000830152612b4a81612b0e565b9050919050565b7f4552433732313a207472616e7366657220746f206e6f6e20455243373231526560008201527f63656976657220696d706c656d656e7465720000000000000000000000000000602082015250565b6000612bad603283611cc6565b9150612bb882612b51565b604082019050919050565b60006020820190508181036000830152612bdc81612ba0565b9050919050565b7f4552433732314d657461646174613a2055524920717565727920666f72206e6f60008201527f6e6578697374656e7420746f6b656e0000000000000000000000000000000000602082015250565b6000612c3f602f83611cc6565b9150612c4a82612be3565b604082019050919050565b60006020820190508181036000830152612c6e81612c32565b9050919050565b600081519050919050565b600082825260208201905092915050565b6000612c9c82612c75565b612ca68185612c80565b9350612cb6818560208601611cd7565b612cbf81611d0a565b840191505092915050565b6000608082019050612cdf6000830187611e0b565b612cec6020830186611e0b565b612cf96040830185611ea1565b8181036060830152612d0b8184612c91565b905095945050505050565b600081519050612d2581611c2c565b92915050565b600060208284031215612d4157612d40611bf6565b5b6000612d4f84828501612d16565b91505092915050565b6000612d6382611d76565b91507fffffffffffffffffffffffffffffffffffffffffffffffffffffffffffffffff821415612d9657612d95612a06565b5b600182019050919050565b7f4e487b7100000000000000000000000000000000000000000000000000000000600052601260045260246000fd5b6000612ddb82611d76565b9150612de683611d76565b925082612df657612df5612da1565b5b828204905092915050565b6000612e0c82611d76565b9150612e1783611d76565b925082612e2757612e26612da1565b5b828206905092915050565b7f4552433732313a206d696e7420746f20746865207a65726f2061646472657373600082015250565b6000612e68602083611cc6565b9150612e7382612e32565b602082019050919050565b60006020820190508181036000830152612e9781612e5b565b9050919050565b7f4552433732313a20746f6b656e20616c7265616479206d696e74656400000000600082015250565b6000612ed4601c83611cc6565b9150612edf82612e9e565b602082019050919050565b60006020820190508181036000830152612f0381612ec7565b905091905056fea2646970667358221220471a3f493f44fbe6669726fb2b94b5ef71c494139298ea23fc8c1f451ff7922364736f6c634300080b0033",
  "immutableReferences": {},
  "source": "// SPDX-License-Identifier: MIT\npragma solidity ^0.8.9;\nimport \"@openzeppelin/contracts/token/ERC721/extensions/ERC721URIStorage.sol\";\nimport \"@openzeppelin/contracts/utils/Counters.sol\";\ncontract SimpleNFT is ERC721URIStorage{\n    using Counters for Counters.Counter;\n    Counters.Counter private _tokenIds;\n    NFTSale[] public _listed;\n    struct NFTSale{\n        uint256 id;\n        uint price;\n        bool isForSale;\n\n    }\n    constructor()ERC721(\"ZweichainNFT721\",\"ZNFT\"){}\n    \n    function getSalePrice(uint256 nftId) external view returns(uint){\n        NFTSale storage nftForSale = _listed[nftId];\n        return nftForSale.price;\n    }\n    function markAsSold(uint256 nftId)external {\n        NFTSale storage nftForSale = _listed[nftId];\n        nftForSale.isForSale = false;\n    }\n    \n    function mintNFT(string memory tokenURI,uint price,address minter) public  {\n        uint256 newItemId = _tokenIds.current();\n        _safeMint(minter,newItemId);\n        _setTokenURI(newItemId,tokenURI);\n\n        NFTSale memory sale = NFTSale(newItemId,price,true);\n        _listed.push(sale);\n\n        _tokenIds.increment();\n    }\n    function transferNFT(address currentOwner,address newOwner,uint256 nftId) external{\n        safeTransferFrom(currentOwner,newOwner,nftId);\n    }\n    function getNftStatus(uint256 nftId) external view returns (bool){\n        NFTSale storage nftForSale = _listed[nftId];\n        return nftForSale.isForSale;\n    }\n    function getitemId(uint i) public view returns(uint){\n        return _listed[i].id;\n    }\n}\n",
  "sourcePath": "/home/srinivas/nft1/contracts/SimpleNFT.sol",
  "compiler": {
    "name": "solc",
    "version": "0.8.11+commit.d7f03943.Emscripten.clang"
  },
  "schemaVersion": "3.4.3",
  "updatedAt": "2022-02-16T05:05:16.708Z",
  "networkType": "ethereum",
  "devdoc": {
    "kind": "dev",
    "methods": {
      "approve(address,uint256)": {
        "details": "See {IERC721-approve}."
      },
      "balanceOf(address)": {
        "details": "See {IERC721-balanceOf}."
      },
      "getApproved(uint256)": {
        "details": "See {IERC721-getApproved}."
      },
      "isApprovedForAll(address,address)": {
        "details": "See {IERC721-isApprovedForAll}."
      },
      "name()": {
        "details": "See {IERC721Metadata-name}."
      },
      "ownerOf(uint256)": {
        "details": "See {IERC721-ownerOf}."
      },
      "safeTransferFrom(address,address,uint256)": {
        "details": "See {IERC721-safeTransferFrom}."
      },
      "safeTransferFrom(address,address,uint256,bytes)": {
        "details": "See {IERC721-safeTransferFrom}."
      },
      "setApprovalForAll(address,bool)": {
        "details": "See {IERC721-setApprovalForAll}."
      },
      "supportsInterface(bytes4)": {
        "details": "See {IERC165-supportsInterface}."
      },
      "symbol()": {
        "details": "See {IERC721Metadata-symbol}."
      },
      "tokenURI(uint256)": {
        "details": "See {IERC721Metadata-tokenURI}."
      },
      "transferFrom(address,address,uint256)": {
        "details": "See {IERC721-transferFrom}."
      }
    },
    "version": 1
  },
  "userdoc": {
    "kind": "user",
    "methods": {},
    "version": 1
  }
}